{
  "_format": "hh-sol-artifact-1",
  "contractName": "StringsHelper",
  "sourceName": "contracts/StringsHelper.sol",
  "abi": [
    {
      "inputs": [
        {
          "internalType": "string",
          "name": "input",
          "type": "string"
        }
      ],
      "name": "base64Encode",
      "outputs": [
        {
          "internalType": "string",
          "name": "",
          "type": "string"
        }
      ],
      "stateMutability": "pure",
      "type": "function"
    },
    {
      "inputs": [
        {
          "internalType": "bytes",
          "name": "input",
          "type": "bytes"
        }
      ],
      "name": "base64Encode",
      "outputs": [
        {
          "internalType": "string",
          "name": "",
          "type": "string"
        }
      ],
      "stateMutability": "pure",
      "type": "function"
    },
    {
      "inputs": [
        {
          "internalType": "uint256",
          "name": "value",
          "type": "uint256"
        },
        {
          "internalType": "uint256",
          "name": "length",
          "type": "uint256"
        }
      ],
      "name": "toHexString",
      "outputs": [
        {
          "internalType": "string",
          "name": "",
          "type": "string"
        }
      ],
      "stateMutability": "pure",
      "type": "function"
    },
    {
      "inputs": [
        {
          "internalType": "uint256",
          "name": "value",
          "type": "uint256"
        }
      ],
      "name": "toHexString",
      "outputs": [
        {
          "internalType": "string",
          "name": "",
          "type": "string"
        }
      ],
      "stateMutability": "pure",
      "type": "function"
    },
    {
      "inputs": [
        {
          "internalType": "address",
          "name": "addr",
          "type": "address"
        }
      ],
      "name": "toString",
      "outputs": [
        {
          "internalType": "string",
          "name": "",
          "type": "string"
        }
      ],
      "stateMutability": "pure",
      "type": "function"
    },
    {
      "inputs": [
        {
          "internalType": "uint256",
          "name": "value",
          "type": "uint256"
        }
      ],
      "name": "toString",
      "outputs": [
        {
          "internalType": "string",
          "name": "",
          "type": "string"
        }
      ],
      "stateMutability": "pure",
      "type": "function"
    },
    {
      "inputs": [
        {
          "internalType": "bytes32",
          "name": "data",
          "type": "bytes32"
        }
      ],
      "name": "toString",
      "outputs": [
        {
          "internalType": "string",
          "name": "",
          "type": "string"
        }
      ],
      "stateMutability": "pure",
      "type": "function"
    }
  ],
  "bytecode": "0x608060405234801561001057600080fd5b50611007806100206000396000f3fe608060405234801561001057600080fd5b506004361061007d5760003560e01c80638fba8d5c1161005b5780638fba8d5c14610112578063b11a19e814610142578063d069e88f14610172578063d5fb1b19146101a25761007d565b806356ca623e1461008257806363e1cbea146100b25780636900a3ae146100e2575b600080fd5b61009c60048036038101906100979190610936565b6101d2565b6040516100a99190610aeb565b60405180910390f35b6100cc60048036038101906100c79190610a4f565b6101fc565b6040516100d99190610aeb565b60405180910390f35b6100fc60048036038101906100f79190610a22565b610210565b6040516101099190610aeb565b60405180910390f35b61012c60048036038101906101279190610a22565b610222565b6040516101399190610aeb565b60405180910390f35b61015c60048036038101906101579190610963565b610234565b6040516101699190610aeb565b60405180910390f35b61018c600480360381019061018791906109d9565b61024b565b6040516101999190610aeb565b60405180910390f35b6101bc60048036038101906101b79190610990565b61025d565b6040516101c99190610aeb565b60405180910390f35b60606101f58273ffffffffffffffffffffffffffffffffffffffff16601461026f565b9050919050565b6060610208838361026f565b905092915050565b606061021b826104ab565b9050919050565b606061022d8261060c565b9050919050565b60606102448260001c602061026f565b9050919050565b606061025682610692565b9050919050565b606061026882610692565b9050919050565b6060600060028360026102829190610c57565b61028c9190610bd0565b67ffffffffffffffff8111156102a5576102a4610ecf565b5b6040519080825280601f01601f1916602001820160405280156102d75781602001600182028036833780820191505090505b5090507f30000000000000000000000000000000000000000000000000000000000000008160008151811061030f5761030e610ea0565b5b60200101907effffffffffffffffffffffffffffffffffffffffffffffffffffffffffffff1916908160001a9053507f78000000000000000000000000000000000000000000000000000000000000008160018151811061037357610372610ea0565b5b60200101907effffffffffffffffffffffffffffffffffffffffffffffffffffffffffffff1916908160001a905350600060018460026103b39190610c57565b6103bd9190610bd0565b90505b600181111561045d577f3031323334353637383961626364656600000000000000000000000000000000600f8616601081106103ff576103fe610ea0565b5b1a60f81b82828151811061041657610415610ea0565b5b60200101907effffffffffffffffffffffffffffffffffffffffffffffffffffffffffffff1916908160001a905350600485901c94508061045690610d6d565b90506103c0565b50600084146104a1576040517f08c379a000000000000000000000000000000000000000000000000000000000815260040161049890610b0d565b60405180910390fd5b8091505092915050565b606060008214156104f3576040518060400160405280600181526020017f30000000000000000000000000000000000000000000000000000000000000008152509050610607565b600082905060005b6000821461052557808061050e90610dc8565b915050600a8261051e9190610c26565b91506104fb565b60008167ffffffffffffffff81111561054157610540610ecf565b5b6040519080825280601f01601f1916602001820160405280156105735781602001600182028036833780820191505090505b5090505b600085146106005760018261058c9190610cb1565b9150600a8561059b9190610e11565b60306105a79190610bd0565b60f81b8183815181106105bd576105bc610ea0565b5b60200101907effffffffffffffffffffffffffffffffffffffffffffffffffffffffffffff1916908160001a905350600a856105f99190610c26565b9450610577565b8093505050505b919050565b60606000821415610654576040518060400160405280600481526020017f3078303000000000000000000000000000000000000000000000000000000000815250905061068d565b600082905060005b6000821461067e57808061066f90610dc8565b915050600882901c915061065c565b610688848261026f565b925050505b919050565b60606000825114156106b557604051806020016040528060008152509050610812565b6000604051806060016040528060408152602001610f9260409139905060006003600285516106e49190610bd0565b6106ee9190610c26565b60046106fa9190610c57565b9050600060208261070b9190610bd0565b67ffffffffffffffff81111561072457610723610ecf565b5b6040519080825280601f01601f1916602001820160405280156107565781602001600182028036833780820191505090505b509050818152600183018586518101602084015b818310156107d1576003830192508251603f8160121c1685015160f81b8252600182019150603f81600c1c1685015160f81b8252600182019150603f8160061c1685015160f81b8252600182019150603f811685015160f81b82526001820191505061076a565b6003895106600181146107eb57600281146107fb57610806565b613d3d60f01b6002830352610806565b603d60f81b60018303525b50505050508093505050505b919050565b600061082a61082584610b52565b610b2d565b90508281526020810184848401111561084657610845610f03565b5b610851848285610d2b565b509392505050565b600061086c61086784610b83565b610b2d565b90508281526020810184848401111561088857610887610f03565b5b610893848285610d2b565b509392505050565b6000813590506108aa81610f4c565b92915050565b6000813590506108bf81610f63565b92915050565b600082601f8301126108da576108d9610efe565b5b81356108ea848260208601610817565b91505092915050565b600082601f83011261090857610907610efe565b5b8135610918848260208601610859565b91505092915050565b60008135905061093081610f7a565b92915050565b60006020828403121561094c5761094b610f0d565b5b600061095a8482850161089b565b91505092915050565b60006020828403121561097957610978610f0d565b5b6000610987848285016108b0565b91505092915050565b6000602082840312156109a6576109a5610f0d565b5b600082013567ffffffffffffffff8111156109c4576109c3610f08565b5b6109d0848285016108c5565b91505092915050565b6000602082840312156109ef576109ee610f0d565b5b600082013567ffffffffffffffff811115610a0d57610a0c610f08565b5b610a19848285016108f3565b91505092915050565b600060208284031215610a3857610a37610f0d565b5b6000610a4684828501610921565b91505092915050565b60008060408385031215610a6657610a65610f0d565b5b6000610a7485828601610921565b9250506020610a8585828601610921565b9150509250929050565b6000610a9a82610bb4565b610aa48185610bbf565b9350610ab4818560208601610d3a565b610abd81610f12565b840191505092915050565b6000610ad5602083610bbf565b9150610ae082610f23565b602082019050919050565b60006020820190508181036000830152610b058184610a8f565b905092915050565b60006020820190508181036000830152610b2681610ac8565b9050919050565b6000610b37610b48565b9050610b438282610d97565b919050565b6000604051905090565b600067ffffffffffffffff821115610b6d57610b6c610ecf565b5b610b7682610f12565b9050602081019050919050565b600067ffffffffffffffff821115610b9e57610b9d610ecf565b5b610ba782610f12565b9050602081019050919050565b600081519050919050565b600082825260208201905092915050565b6000610bdb82610d21565b9150610be683610d21565b9250827fffffffffffffffffffffffffffffffffffffffffffffffffffffffffffffffff03821115610c1b57610c1a610e42565b5b828201905092915050565b6000610c3182610d21565b9150610c3c83610d21565b925082610c4c57610c4b610e71565b5b828204905092915050565b6000610c6282610d21565b9150610c6d83610d21565b9250817fffffffffffffffffffffffffffffffffffffffffffffffffffffffffffffffff0483118215151615610ca657610ca5610e42565b5b828202905092915050565b6000610cbc82610d21565b9150610cc783610d21565b925082821015610cda57610cd9610e42565b5b828203905092915050565b6000610cf082610d01565b9050919050565b6000819050919050565b600073ffffffffffffffffffffffffffffffffffffffff82169050919050565b6000819050919050565b82818337600083830152505050565b60005b83811015610d58578082015181840152602081019050610d3d565b83811115610d67576000848401525b50505050565b6000610d7882610d21565b91506000821415610d8c57610d8b610e42565b5b600182039050919050565b610da082610f12565b810181811067ffffffffffffffff82111715610dbf57610dbe610ecf565b5b80604052505050565b6000610dd382610d21565b91507fffffffffffffffffffffffffffffffffffffffffffffffffffffffffffffffff821415610e0657610e05610e42565b5b600182019050919050565b6000610e1c82610d21565b9150610e2783610d21565b925082610e3757610e36610e71565b5b828206905092915050565b7f4e487b7100000000000000000000000000000000000000000000000000000000600052601160045260246000fd5b7f4e487b7100000000000000000000000000000000000000000000000000000000600052601260045260246000fd5b7f4e487b7100000000000000000000000000000000000000000000000000000000600052603260045260246000fd5b7f4e487b7100000000000000000000000000000000000000000000000000000000600052604160045260246000fd5b600080fd5b600080fd5b600080fd5b600080fd5b6000601f19601f8301169050919050565b7f537472696e67733a20686578206c656e67746820696e73756666696369656e74600082015250565b610f5581610ce5565b8114610f6057600080fd5b50565b610f6c81610cf7565b8114610f7757600080fd5b50565b610f8381610d21565b8114610f8e57600080fd5b5056fe4142434445464748494a4b4c4d4e4f505152535455565758595a6162636465666768696a6b6c6d6e6f707172737475767778797a303132333435363738392b2fa26469706673582212207eee43d85d76637afd88f57d2b71357e8e9405bd1500485475e4034b5c97629064736f6c63430008050033",
  "linkReferences": {},
  "deployedLinkReferences": {}
}